{
  "contractName": "Marketplace",
  "abi": [
    {
      "inputs": [],
      "stateMutability": "nonpayable",
      "type": "constructor"
    },
    {
      "inputs": [
        {
          "internalType": "address",
          "name": "a",
          "type": "address"
        }
      ],
      "name": "addAdmin",
      "outputs": [],
      "stateMutability": "nonpayable",
      "type": "function"
    },
    {
      "inputs": [
        {
          "internalType": "address",
          "name": "a",
          "type": "address"
        }
      ],
      "name": "isAdmin",
      "outputs": [
        {
          "internalType": "bool",
          "name": "",
          "type": "bool"
        }
      ],
      "stateMutability": "view",
      "type": "function"
    },
    {
      "inputs": [
        {
          "internalType": "address",
          "name": "a",
          "type": "address"
        }
      ],
      "name": "isOwner",
      "outputs": [
        {
          "internalType": "bool",
          "name": "",
          "type": "bool"
        }
      ],
      "stateMutability": "view",
      "type": "function"
    },
    {
      "inputs": [
        {
          "internalType": "uint256",
          "name": "",
          "type": "uint256"
        }
      ],
      "name": "store_visibility",
      "outputs": [
        {
          "internalType": "bool",
          "name": "",
          "type": "bool"
        }
      ],
      "stateMutability": "view",
      "type": "function"
    },
    {
      "inputs": [
        {
          "internalType": "uint256",
          "name": "",
          "type": "uint256"
        }
      ],
      "name": "stores",
      "outputs": [
        {
          "internalType": "contract Store",
          "name": "",
          "type": "address"
        }
      ],
      "stateMutability": "view",
      "type": "function"
    },
    {
      "inputs": [
        {
          "internalType": "string",
          "name": "ipfs_hash",
          "type": "string"
        },
        {
          "internalType": "bool",
          "name": "is_visible",
          "type": "bool"
        }
      ],
      "name": "addStore",
      "outputs": [
        {
          "internalType": "address",
          "name": "",
          "type": "address"
        }
      ],
      "stateMutability": "nonpayable",
      "type": "function"
    },
    {
      "inputs": [
        {
          "internalType": "uint256",
          "name": "store_id",
          "type": "uint256"
        },
        {
          "internalType": "bool",
          "name": "visible",
          "type": "bool"
        }
      ],
      "name": "setStoreVisibility",
      "outputs": [],
      "stateMutability": "nonpayable",
      "type": "function"
    },
    {
      "inputs": [
        {
          "internalType": "uint256",
          "name": "store_id",
          "type": "uint256"
        }
      ],
      "name": "getStore",
      "outputs": [
        {
          "internalType": "string",
          "name": "",
          "type": "string"
        }
      ],
      "stateMutability": "view",
      "type": "function"
    },
    {
      "inputs": [
        {
          "internalType": "uint256[]",
          "name": "ids",
          "type": "uint256[]"
        }
      ],
      "name": "getStores",
      "outputs": [
        {
          "internalType": "string[]",
          "name": "",
          "type": "string[]"
        }
      ],
      "stateMutability": "view",
      "type": "function"
    },
    {
      "inputs": [
        {
          "internalType": "uint256",
          "name": "cursor",
          "type": "uint256"
        },
        {
          "internalType": "uint256",
          "name": "length",
          "type": "uint256"
        }
      ],
      "name": "getAllStores",
      "outputs": [
        {
          "internalType": "uint256",
          "name": "",
          "type": "uint256"
        },
        {
          "internalType": "string[]",
          "name": "",
          "type": "string[]"
        }
      ],
      "stateMutability": "view",
      "type": "function"
    }
  ],
  "bytecode": "0x608060405234801561001057600080fd5b503380600160006101000a81548173ffffffffffffffffffffffffffffffffffffffff021916908373ffffffffffffffffffffffffffffffffffffffff1602179055506001600080600160009054906101000a900473ffffffffffffffffffffffffffffffffffffffff1673ffffffffffffffffffffffffffffffffffffffff1673ffffffffffffffffffffffffffffffffffffffff16815260200190815260200160002060006101000a81548160ff021916908315150217905550506133f6806100dc6000396000f3fe60806040523480156200001157600080fd5b5060043610620000ac5760003560e01c80639848748d116200006f5780639848748d14620001a9578063abade82e14620001df578063de623b091462000215578063e8a59cd81462000235578063ed5e960c146200026b57620000ac565b806324d7806c14620000b15780632f54bf6e14620000e757806370480275146200011d57806372089be2146200013d578063834031201462000173575b600080fd5b620000cf6004803603810190620000c9919062000f0a565b620002a2565b604051620000de919062001334565b60405180910390f35b620001056004803603810190620000ff919062000f0a565b620002f7565b60405162000114919062001334565b60405180910390f35b6200013b600480360381019062000135919062000f0a565b62000351565b005b6200015b600480360381019062000155919062000f36565b620003ab565b6040516200016a919062001310565b60405180910390f35b6200019160048036038101906200018b91906200104a565b6200059a565b604051620001a091906200136e565b60405180910390f35b620001c76004803603810190620001c1919062000ff0565b6200065d565b604051620001d69190620012af565b60405180910390f35b620001fd6004803603810190620001f791906200104a565b62000902565b6040516200020c919062001334565b60405180910390f35b6200023360048036038101906200022d9190620010a2565b62000922565b005b6200025360048036038101906200024d91906200104a565b620009df565b60405162000262919062001351565b60405180910390f35b620002896004803603810190620002839190620010e3565b62000a12565b60405162000299929190620013d1565b60405180910390f35b60008060008373ffffffffffffffffffffffffffffffffffffffff1673ffffffffffffffffffffffffffffffffffffffff16815260200190815260200160002060009054906101000a900460ff169050919050565b6000600160009054906101000a900473ffffffffffffffffffffffffffffffffffffffff1673ffffffffffffffffffffffffffffffffffffffff168273ffffffffffffffffffffffffffffffffffffffff16149050919050565b60016000808373ffffffffffffffffffffffffffffffffffffffff1673ffffffffffffffffffffffffffffffffffffffff16815260200190815260200160002060006101000a81548160ff02191690831515021790555050565b606060008383905067ffffffffffffffff811115620003f3577f4e487b7100000000000000000000000000000000000000000000000000000000600052604160045260246000fd5b6040519080825280602002602001820160405280156200042857816020015b6060815260200190600190039081620004125790505b50905060005b848490508110156200058f576003600086868481811062000478577f4e487b7100000000000000000000000000000000000000000000000000000000600052603260045260246000fd5b90506020020135815260200190815260200160002060009054906101000a900473ffffffffffffffffffffffffffffffffffffffff1673ffffffffffffffffffffffffffffffffffffffff1663809051db6040518163ffffffff1660e01b815260040160006040518083038186803b158015620004f457600080fd5b505afa15801562000509573d6000803e3d6000fd5b505050506040513d6000823e3d601f19601f8201168201806040525081019062000534919062000fab565b8282815181106200056e577f4e487b7100000000000000000000000000000000000000000000000000000000600052603260045260246000fd5b602002602001018190525080806200058690620015b7565b9150506200042e565b508091505092915050565b60606003600083815260200190815260200160002060009054906101000a900473ffffffffffffffffffffffffffffffffffffffff1673ffffffffffffffffffffffffffffffffffffffff1663809051db6040518163ffffffff1660e01b815260040160006040518083038186803b1580156200061657600080fd5b505afa1580156200062b573d6000803e3d6000fd5b505050506040513d6000823e3d601f19601f8201168201806040525081019062000656919062000fab565b9050919050565b6000338383604051620006709062000d58565b6200067e93929190620012cc565b604051809103906000f0801580156200069b573d6000803e3d6000fd5b5060036000600273__IdGenerators__________________________6308a7379590916040518263ffffffff1660e01b8152600401620006dc9190620013b4565b60206040518083038186803b158015620006f557600080fd5b505af41580156200070a573d6000803e3d6000fd5b505050506040513d601f19601f8201168201806040525081019062000730919062001076565b815260200190815260200160002060006101000a81548173ffffffffffffffffffffffffffffffffffffffff021916908373ffffffffffffffffffffffffffffffffffffffff160217905550600160046000600273__IdGenerators__________________________6374828ff490916040518263ffffffff1660e01b8152600401620007be9190620013b4565b60206040518083038186803b158015620007d757600080fd5b505af4158015620007ec573d6000803e3d6000fd5b505050506040513d601f19601f8201168201806040525081019062000812919062001076565b815260200190815260200160002060006101000a81548160ff02191690831515021790555060036000600273__IdGenerators__________________________6374828ff490916040518263ffffffff1660e01b8152600401620008779190620013b4565b60206040518083038186803b1580156200089057600080fd5b505af4158015620008a5573d6000803e3d6000fd5b505050506040513d601f19601f82011682018060405250810190620008cb919062001076565b815260200190815260200160002060009054906101000a900473ffffffffffffffffffffffffffffffffffffffff16905092915050565b60046020528060005260406000206000915054906101000a900460ff1681565b6000803373ffffffffffffffffffffffffffffffffffffffff1673ffffffffffffffffffffffffffffffffffffffff16815260200190815260200160002060009054906101000a900460ff16620009b0576040517f08c379a0000000000000000000000000000000000000000000000000000000008152600401620009a79062001392565b60405180910390fd5b806004600084815260200190815260200160002060006101000a81548160ff0219169083151502179055505050565b60036020528060005260406000206000915054906101000a900473ffffffffffffffffffffffffffffffffffffffff1681565b600060606000808467ffffffffffffffff81111562000a5a577f4e487b7100000000000000000000000000000000000000000000000000000000600052604160045260246000fd5b60405190808252806020026020018201604052801562000a8f57816020015b606081526020019060019003908162000a795790505b50905060008690505b858310801562000b375750600273__IdGenerators__________________________6374828ff490916040518263ffffffff1660e01b815260040162000adf9190620013b4565b60206040518083038186803b15801562000af857600080fd5b505af415801562000b0d573d6000803e3d6000fd5b505050506040513d601f19601f8201168201806040525081019062000b33919062001076565b8711155b1562000d48576004600088815260200190815260200160002060009054906101000a900460ff16801562000c1c57506003600088815260200190815260200160002060009054906101000a900473ffffffffffffffffffffffffffffffffffffffff1673ffffffffffffffffffffffffffffffffffffffff1663cea8d7546040518163ffffffff1660e01b815260040160206040518083038186803b15801562000be057600080fd5b505afa15801562000bf5573d6000803e3d6000fd5b505050506040513d601f19601f8201168201806040525081019062000c1b919062000f7f565b5b1562000d22576003600088815260200190815260200160002060009054906101000a900473ffffffffffffffffffffffffffffffffffffffff1673ffffffffffffffffffffffffffffffffffffffff1663809051db6040518163ffffffff1660e01b815260040160006040518083038186803b15801562000c9c57600080fd5b505afa15801562000cb1573d6000803e3d6000fd5b505050506040513d6000823e3d601f19601f8201168201806040525081019062000cdc919062000fab565b82848151811062000d16577f4e487b7100000000000000000000000000000000000000000000000000000000600052603260045260246000fd5b60200260200101819052505b868062000d2f90620015b7565b975050808062000d3f90620015b7565b91505062000a98565b5085819350935050509250929050565b611caf806200171283390190565b600062000d7d62000d77846200142e565b62001405565b90508281526020810184848401111562000d9657600080fd5b62000da38482856200153c565b509392505050565b600062000dc262000dbc846200142e565b62001405565b90508281526020810184848401111562000ddb57600080fd5b62000de88482856200154b565b509392505050565b60008135905062000e0181620016c3565b92915050565b60008083601f84011262000e1a57600080fd5b8235905067ffffffffffffffff81111562000e3457600080fd5b60208301915083602082028301111562000e4d57600080fd5b9250929050565b60008135905062000e6581620016dd565b92915050565b60008151905062000e7c81620016dd565b92915050565b600082601f83011262000e9457600080fd5b813562000ea684826020860162000d66565b91505092915050565b600082601f83011262000ec157600080fd5b815162000ed384826020860162000dab565b91505092915050565b60008135905062000eed81620016f7565b92915050565b60008151905062000f0481620016f7565b92915050565b60006020828403121562000f1d57600080fd5b600062000f2d8482850162000df0565b91505092915050565b6000806020838503121562000f4a57600080fd5b600083013567ffffffffffffffff81111562000f6557600080fd5b62000f738582860162000e07565b92509250509250929050565b60006020828403121562000f9257600080fd5b600062000fa28482850162000e6b565b91505092915050565b60006020828403121562000fbe57600080fd5b600082015167ffffffffffffffff81111562000fd957600080fd5b62000fe78482850162000eaf565b91505092915050565b600080604083850312156200100457600080fd5b600083013567ffffffffffffffff8111156200101f57600080fd5b6200102d8582860162000e82565b9250506020620010408582860162000e54565b9150509250929050565b6000602082840312156200105d57600080fd5b60006200106d8482850162000edc565b91505092915050565b6000602082840312156200108957600080fd5b6000620010998482850162000ef3565b91505092915050565b60008060408385031215620010b657600080fd5b6000620010c68582860162000edc565b9250506020620010d98582860162000e54565b9150509250929050565b60008060408385031215620010f757600080fd5b6000620011078582860162000edc565b92505060206200111a8582860162000edc565b9150509250929050565b6000620011328383620011ee565b905092915050565b6200114581620014ca565b82525050565b6000620011588262001474565b62001164818562001497565b935083602082028501620011788562001464565b8060005b85811015620011ba578484038952815162001198858262001124565b9450620011a5836200148a565b925060208a019950506001810190506200117c565b50829750879550505050505092915050565b620011d781620014de565b82525050565b620011e88162001514565b82525050565b6000620011fb826200147f565b620012078185620014a8565b9350620012198185602086016200154b565b620012248162001663565b840191505092915050565b60006200123c826200147f565b620012488185620014b9565b93506200125a8185602086016200154b565b620012658162001663565b840191505092915050565b60006200127f602a83620014b9565b91506200128c8262001674565b604082019050919050565b8082525050565b620012a9816200150a565b82525050565b6000602082019050620012c660008301846200113a565b92915050565b6000606082019050620012e360008301866200113a565b8181036020830152620012f781856200122f565b9050620013086040830184620011cc565b949350505050565b600060208201905081810360008301526200132c81846200114b565b905092915050565b60006020820190506200134b6000830184620011cc565b92915050565b6000602082019050620013686000830184620011dd565b92915050565b600060208201905081810360008301526200138a81846200122f565b905092915050565b60006020820190508181036000830152620013ad8162001270565b9050919050565b6000602082019050620013cb600083018462001297565b92915050565b6000604082019050620013e860008301856200129e565b8181036020830152620013fc81846200114b565b90509392505050565b60006200141162001424565b90506200141f828262001581565b919050565b6000604051905090565b600067ffffffffffffffff8211156200144c576200144b62001634565b5b620014578262001663565b9050602081019050919050565b6000819050602082019050919050565b600081519050919050565b600081519050919050565b6000602082019050919050565b600082825260208201905092915050565b600082825260208201905092915050565b600082825260208201905092915050565b6000620014d782620014ea565b9050919050565b60008115159050919050565b600073ffffffffffffffffffffffffffffffffffffffff82169050919050565b6000819050919050565b6000620015218262001528565b9050919050565b60006200153582620014ea565b9050919050565b82818337600083830152505050565b60005b838110156200156b5780820151818401526020810190506200154e565b838111156200157b576000848401525b50505050565b6200158c8262001663565b810181811067ffffffffffffffff82111715620015ae57620015ad62001634565b5b80604052505050565b6000620015c4826200150a565b91507fffffffffffffffffffffffffffffffffffffffffffffffffffffffffffffffff821415620015fa57620015f962001605565b5b600182019050919050565b7f4e487b7100000000000000000000000000000000000000000000000000000000600052601160045260246000fd5b7f4e487b7100000000000000000000000000000000000000000000000000000000600052604160045260246000fd5b6000601f19601f8301169050919050565b7f596f75206e6565642061646d696e2061636365737320746f207573652074686960008201527f732066756e6374696f6e00000000000000000000000000000000000000000000602082015250565b620016ce81620014ca565b8114620016da57600080fd5b50565b620016e881620014de565b8114620016f457600080fd5b50565b62001702816200150a565b81146200170e57600080fd5b5056fe60806040523480156200001157600080fd5b5060405162001caf38038062001caf8339818101604052810190620000379190620002c0565b8280600160006101000a81548173ffffffffffffffffffffffffffffffffffffffff021916908373ffffffffffffffffffffffffffffffffffffffff1602179055506001600080600160009054906101000a900473ffffffffffffffffffffffffffffffffffffffff1673ffffffffffffffffffffffffffffffffffffffff1673ffffffffffffffffffffffffffffffffffffffff16815260200190815260200160002060006101000a81548160ff0219169083151502179055505082600160006101000a81548173ffffffffffffffffffffffffffffffffffffffff021916908373ffffffffffffffffffffffffffffffffffffffff16021790555081600290805190602001906200014c92919062000170565b5080600360006101000a81548160ff02191690831515021790555050505062000513565b8280546200017e9062000404565b90600052602060002090601f016020900481019282620001a25760008555620001ee565b82601f10620001bd57805160ff1916838001178555620001ee565b82800160010185558215620001ee579182015b82811115620001ed578251825591602001919060010190620001d0565b5b509050620001fd919062000201565b5090565b5b808211156200021c57600081600090555060010162000202565b5090565b600062000237620002318462000358565b6200032f565b9050828152602081018484840111156200025057600080fd5b6200025d848285620003ce565b509392505050565b6000815190506200027681620004df565b92915050565b6000815190506200028d81620004f9565b92915050565b600082601f830112620002a557600080fd5b8151620002b784826020860162000220565b91505092915050565b600080600060608486031215620002d657600080fd5b6000620002e68682870162000265565b935050602084015167ffffffffffffffff8111156200030457600080fd5b620003128682870162000293565b925050604062000325868287016200027c565b9150509250925092565b60006200033b6200034e565b90506200034982826200043a565b919050565b6000604051905090565b600067ffffffffffffffff8211156200037657620003756200049f565b5b6200038182620004ce565b9050602081019050919050565b60006200039b82620003ae565b9050919050565b60008115159050919050565b600073ffffffffffffffffffffffffffffffffffffffff82169050919050565b60005b83811015620003ee578082015181840152602081019050620003d1565b83811115620003fe576000848401525b50505050565b600060028204905060018216806200041d57607f821691505b6020821081141562000434576200043362000470565b5b50919050565b6200044582620004ce565b810181811067ffffffffffffffff821117156200046757620004666200049f565b5b80604052505050565b7f4e487b7100000000000000000000000000000000000000000000000000000000600052602260045260246000fd5b7f4e487b7100000000000000000000000000000000000000000000000000000000600052604160045260246000fd5b6000601f19601f8301169050919050565b620004ea816200038e565b8114620004f657600080fd5b50565b6200050481620003a2565b81146200051057600080fd5b50565b61178c80620005236000396000f3fe60806040526004361061009c5760003560e01c8063809051db11610064578063809051db146101bf578063bfb231d2146101ea578063cea8d7541461022a578063e067569814610255578063e6eafc9614610271578063ed1f21ec146102ae5761009c565b8063131a4b26146100a157806324d7806c146100df5780632f54bf6e1461011c5780633129e773146101595780637048027514610196575b600080fd5b3480156100ad57600080fd5b506100c860048036038101906100c39190610fc3565b6102d7565b6040516100d69291906111aa565b60405180910390f35b3480156100eb57600080fd5b5061010660048036038101906101019190610e4c565b610542565b60405161011391906111da565b60405180910390f35b34801561012857600080fd5b50610143600480360381019061013e9190610e4c565b610597565b60405161015091906111da565b60405180910390f35b34801561016557600080fd5b50610180600480360381019061017b9190610f35565b6105f1565b60405161018d91906111f5565b60405180910390f35b3480156101a257600080fd5b506101bd60048036038101906101b89190610e4c565b610699565b005b3480156101cb57600080fd5b506101d46106f3565b6040516101e191906111f5565b60405180910390f35b3480156101f657600080fd5b50610211600480360381019061020c9190610f35565b610781565b6040516102219493929190611217565b60405180910390f35b34801561023657600080fd5b5061023f610846565b60405161024c91906111da565b60405180910390f35b61026f600480360381019061026a9190610f87565b610859565b005b34801561027d57600080fd5b5061029860048036038101906102939190610e75565b6109aa565b6040516102a59190611188565b60405180910390f35b3480156102ba57600080fd5b506102d560048036038101906102d09190610eba565b610b75565b005b606060008260ff1667ffffffffffffffff81111561031e577f4e487b7100000000000000000000000000000000000000000000000000000000600052604160045260246000fd5b60405190808252806020026020018201604052801561035157816020015b606081526020019060019003908161033c5790505b50915060005b600473__IdGenerators__________________________6374828ff490916040518263ffffffff1660e01b815260040161039191906112c3565b60206040518083038186803b1580156103a957600080fd5b505af41580156103bd573d6000803e3d6000fd5b505050506040513d601f19601f820116820180604052508101906103e19190610f5e565b851015610533578360ff168160ff161415610402578285925092505061053b565b6005600086815260200190815260200160002060010160009054906101000a900460ff16156105205760056000868152602001908152602001600020600001805461044c906114bf565b80601f0160208091040260200160405190810160405280929190818152602001828054610478906114bf565b80156104c55780601f1061049a576101008083540402835291602001916104c5565b820191906000526020600020905b8154815290600101906020018083116104a857829003601f168201915b5050505050838260ff1681518110610506577f4e487b7100000000000000000000000000000000000000000000000000000000600052603260045260246000fd5b6020026020010181905250808061051c9061156b565b9150505b848061052b90611522565b955050610357565b828592509250505b9250929050565b60008060008373ffffffffffffffffffffffffffffffffffffffff1673ffffffffffffffffffffffffffffffffffffffff16815260200190815260200160002060009054906101000a900460ff169050919050565b6000600160009054906101000a900473ffffffffffffffffffffffffffffffffffffffff1673ffffffffffffffffffffffffffffffffffffffff168273ffffffffffffffffffffffffffffffffffffffff16149050919050565b6060600560008381526020019081526020016000206000018054610614906114bf565b80601f0160208091040260200160405190810160405280929190818152602001828054610640906114bf565b801561068d5780601f106106625761010080835404028352916020019161068d565b820191906000526020600020905b81548152906001019060200180831161067057829003601f168201915b50505050509050919050565b60016000808373ffffffffffffffffffffffffffffffffffffffff1673ffffffffffffffffffffffffffffffffffffffff16815260200190815260200160002060006101000a81548160ff02191690831515021790555050565b60028054610700906114bf565b80601f016020809104026020016040519081016040528092919081815260200182805461072c906114bf565b80156107795780601f1061074e57610100808354040283529160200191610779565b820191906000526020600020905b81548152906001019060200180831161075c57829003601f168201915b505050505081565b60056020528060005260406000206000915090508060000180546107a4906114bf565b80601f01602080910402602001604051908101604052809291908181526020018280546107d0906114bf565b801561081d5780601f106107f25761010080835404028352916020019161081d565b820191906000526020600020905b81548152906001019060200180831161080057829003601f168201915b5050505050908060010160009054906101000a900460ff16908060020154908060030154905084565b600360009054906101000a900460ff1681565b60006005600084815260200190815260200160002060030154116108b2576040517f08c379a00000000000000000000000000000000000000000000000000000000081526004016108a990611263565b60405180910390fd5b60008160056000858152602001908152602001600020600301546108d691906113f4565b11610916576040517f08c379a000000000000000000000000000000000000000000000000000000000815260040161090d90611283565b60405180910390fd5b806005600084815260200190815260200160002060020154610938919061139a565b3414610979576040517f08c379a0000000000000000000000000000000000000000000000000000000008152600401610970906112a3565b60405180910390fd5b8060056000848152602001908152602001600020600301600082825461099f91906113f4565b925050819055505050565b606060008383905067ffffffffffffffff8111156109f1577f4e487b7100000000000000000000000000000000000000000000000000000000600052604160045260246000fd5b604051908082528060200260200182016040528015610a2457816020015b6060815260200190600190039081610a0f5790505b50905060005b84849050811015610b6a5760056000868684818110610a72577f4e487b7100000000000000000000000000000000000000000000000000000000600052603260045260246000fd5b9050602002013581526020019081526020016000206000018054610a95906114bf565b80601f0160208091040260200160405190810160405280929190818152602001828054610ac1906114bf565b8015610b0e5780601f10610ae357610100808354040283529160200191610b0e565b820191906000526020600020905b815481529060010190602001808311610af157829003601f168201915b5050505050828281518110610b4c577f4e487b7100000000000000000000000000000000000000000000000000000000600052603260045260246000fd5b60200260200101819052508080610b6290611522565b915050610a2a565b508091505092915050565b604051806080016040528085815260200184151581526020018381526020018281525060056000600473__IdGenerators__________________________6308a7379590916040518263ffffffff1660e01b8152600401610bd691906112c3565b60206040518083038186803b158015610bee57600080fd5b505af4158015610c02573d6000803e3d6000fd5b505050506040513d601f19601f82011682018060405250810190610c269190610f5e565b81526020019081526020016000206000820151816000019080519060200190610c50929190610c8e565b5060208201518160010160006101000a81548160ff021916908315150217905550604082015181600201556060820151816003015590505050505050565b828054610c9a906114bf565b90600052602060002090601f016020900481019282610cbc5760008555610d03565b82601f10610cd557805160ff1916838001178555610d03565b82800160010185558215610d03579182015b82811115610d02578251825591602001919060010190610ce7565b5b509050610d109190610d14565b5090565b5b80821115610d2d576000816000905550600101610d15565b5090565b6000610d44610d3f84611303565b6112de565b905082815260208101848484011115610d5c57600080fd5b610d6784828561147d565b509392505050565b600081359050610d7e816116fa565b92915050565b60008083601f840112610d9657600080fd5b8235905067ffffffffffffffff811115610daf57600080fd5b602083019150836020820283011115610dc757600080fd5b9250929050565b600081359050610ddd81611711565b92915050565b600082601f830112610df457600080fd5b8135610e04848260208601610d31565b91505092915050565b600081359050610e1c81611728565b92915050565b600081519050610e3181611728565b92915050565b600081359050610e468161173f565b92915050565b600060208284031215610e5e57600080fd5b6000610e6c84828501610d6f565b91505092915050565b60008060208385031215610e8857600080fd5b600083013567ffffffffffffffff811115610ea257600080fd5b610eae85828601610d84565b92509250509250929050565b60008060008060808587031215610ed057600080fd5b600085013567ffffffffffffffff811115610eea57600080fd5b610ef687828801610de3565b9450506020610f0787828801610dce565b9350506040610f1887828801610e0d565b9250506060610f2987828801610e0d565b91505092959194509250565b600060208284031215610f4757600080fd5b6000610f5584828501610e0d565b91505092915050565b600060208284031215610f7057600080fd5b6000610f7e84828501610e22565b91505092915050565b60008060408385031215610f9a57600080fd5b6000610fa885828601610e0d565b9250506020610fb985828601610e0d565b9150509250929050565b60008060408385031215610fd657600080fd5b6000610fe485828601610e0d565b9250506020610ff585828601610e37565b9150509250929050565b600061100b8383611097565b905092915050565b600061101e82611344565b6110288185611367565b93508360208202850161103a85611334565b8060005b8581101561107657848403895281516110578582610fff565b94506110628361135a565b925060208a0199505060018101905061103e565b50829750879550505050505092915050565b6110918161143a565b82525050565b60006110a28261134f565b6110ac8185611378565b93506110bc81856020860161148c565b6110c581611622565b840191505092915050565b60006110db8261134f565b6110e58185611389565b93506110f581856020860161148c565b6110fe81611622565b840191505092915050565b6000611116601f83611389565b915061112182611633565b602082019050919050565b6000611139602483611389565b91506111448261165c565b604082019050919050565b600061115c602583611389565b9150611167826116ab565b604082019050919050565b8082525050565b61118281611466565b82525050565b600060208201905081810360008301526111a28184611013565b905092915050565b600060408201905081810360008301526111c48185611013565b90506111d36020830184611179565b9392505050565b60006020820190506111ef6000830184611088565b92915050565b6000602082019050818103600083015261120f81846110d0565b905092915050565b6000608082019050818103600083015261123181876110d0565b90506112406020830186611088565b61124d6040830185611179565b61125a6060830184611179565b95945050505050565b6000602082019050818103600083015261127c81611109565b9050919050565b6000602082019050818103600083015261129c8161112c565b9050919050565b600060208201905081810360008301526112bc8161114f565b9050919050565b60006020820190506112d86000830184611172565b92915050565b60006112e86112f9565b90506112f482826114f1565b919050565b6000604051905090565b600067ffffffffffffffff82111561131e5761131d6115f3565b5b61132782611622565b9050602081019050919050565b6000819050602082019050919050565b600081519050919050565b600081519050919050565b6000602082019050919050565b600082825260208201905092915050565b600082825260208201905092915050565b600082825260208201905092915050565b60006113a582611466565b91506113b083611466565b9250817fffffffffffffffffffffffffffffffffffffffffffffffffffffffffffffffff04831182151516156113e9576113e8611595565b5b828202905092915050565b60006113ff82611466565b915061140a83611466565b92508282101561141d5761141c611595565b5b828203905092915050565b600061143382611446565b9050919050565b60008115159050919050565b600073ffffffffffffffffffffffffffffffffffffffff82169050919050565b6000819050919050565b600060ff82169050919050565b82818337600083830152505050565b60005b838110156114aa57808201518184015260208101905061148f565b838111156114b9576000848401525b50505050565b600060028204905060018216806114d757607f821691505b602082108114156114eb576114ea6115c4565b5b50919050565b6114fa82611622565b810181811067ffffffffffffffff82111715611519576115186115f3565b5b80604052505050565b600061152d82611466565b91507fffffffffffffffffffffffffffffffffffffffffffffffffffffffffffffffff8214156115605761155f611595565b5b600182019050919050565b600061157682611470565b915060ff82141561158a57611589611595565b5b600182019050919050565b7f4e487b7100000000000000000000000000000000000000000000000000000000600052601160045260246000fd5b7f4e487b7100000000000000000000000000000000000000000000000000000000600052602260045260246000fd5b7f4e487b7100000000000000000000000000000000000000000000000000000000600052604160045260246000fd5b6000601f19601f8301169050919050565b7f54686973206974656d206973206e6f206c6f6e67657220696e2073746f636b00600082015250565b7f54686973206974656d20646f6573206e6f74206861766520656e6f756768207360008201527f746f636b00000000000000000000000000000000000000000000000000000000602082015250565b7f496e636f72726563742076616c75652073656e742077697468207472616e736160008201527f6374696f6e000000000000000000000000000000000000000000000000000000602082015250565b61170381611428565b811461170e57600080fd5b50565b61171a8161143a565b811461172557600080fd5b50565b61173181611466565b811461173c57600080fd5b50565b61174881611470565b811461175357600080fd5b5056fea2646970667358221220325f26932d49b1d5340006373b9205b1386ac17f2b29b2176bfbfb61d9ed259964736f6c63430008040033a2646970667358221220c05a7cab3079ecbf3216aa7fde4d318bd8ec010e401f6783e148b97f063fb03964736f6c63430008040033",
  "immutableReferences": {},
  "source": "// SPDX-License-Identifier: MIT\npragma solidity >=0.4.22 <0.9.0;\n\nimport \"./access.sol\";\nimport \"./utils.sol\";\nimport \"./store.sol\";\n\ncontract Marketplace is Access {\n    using IdGenerators for IdGenerators.IdGenerator;\n\n    IdGenerators.IdGenerator store_id_generator;\n    mapping(uint256 => Store) public stores;\n    mapping(uint256 => bool) public store_visibility;\n\n    constructor() Access(msg.sender){}\n\n    function addStore(string memory ipfs_hash, bool is_visible) \n    external returns(address){\n        stores[store_id_generator.next()] = new Store(msg.sender, ipfs_hash, is_visible);\n        store_visibility[store_id_generator.current()] = true;\n        return address(stores[store_id_generator.current()]);\n    }\n\n    function setStoreVisibility(uint256 store_id, bool visible) \n    external requiresAdmin() {\n        store_visibility[store_id] = visible;\n    }\n\n    function getStore(uint256 store_id) \n    external view returns (string memory) {\n        return stores[store_id].ipfs_hash();\n    }\n\n    function getStores(uint256[] calldata ids)\n    external view returns (string[] memory) {\n        string[] memory results = new string[](ids.length);\n        for (uint256 i = 0; i < ids.length; i++) {\n            results[i] = stores[ids[i]].ipfs_hash();\n        }\n        return results;\n    }\n\n    function getAllStores(uint256 cursor, uint256 length)\n    external view returns (uint256, string[] memory) {\n        uint256 c = 0;\n        string[] memory values = new string[](length);\n        for (uint256 i = cursor; (c < length && cursor <= store_id_generator.current()); i++) {\n            if (store_visibility[cursor] &&  stores[cursor].is_visible()) values[c] = stores[cursor].ipfs_hash();\n            cursor++;\n        }\n        return (cursor, values);\n    }\n}\n",
  "sourcePath": "E:/distributed_market/contracts/market.sol",
  "compiler": {
    "name": "solc",
    "version": "0.8.4+commit.c7e474f2.Emscripten.clang"
  },
  "schemaVersion": "3.4.0",
  "updatedAt": "2021-06-12T16:21:11.972Z",
  "devdoc": {
    "kind": "dev",
    "methods": {},
    "version": 1
  },
  "userdoc": {
    "kind": "user",
    "methods": {},
    "version": 1
  }
}