{
  "contractName": "Store",
  "abi": [
    {
      "inputs": [
        {
          "internalType": "address",
          "name": "_owner",
          "type": "address"
        },
        {
          "internalType": "string",
          "name": "_ipfs_hash",
          "type": "string"
        },
        {
          "internalType": "bool",
          "name": "_is_visible",
          "type": "bool"
        }
      ],
      "stateMutability": "nonpayable",
      "type": "constructor"
    },
    {
      "inputs": [
        {
          "internalType": "address",
          "name": "a",
          "type": "address"
        }
      ],
      "name": "addAdmin",
      "outputs": [],
      "stateMutability": "nonpayable",
      "type": "function"
    },
    {
      "inputs": [],
      "name": "ipfs_hash",
      "outputs": [
        {
          "internalType": "string",
          "name": "",
          "type": "string"
        }
      ],
      "stateMutability": "view",
      "type": "function"
    },
    {
      "inputs": [
        {
          "internalType": "address",
          "name": "a",
          "type": "address"
        }
      ],
      "name": "isAdmin",
      "outputs": [
        {
          "internalType": "bool",
          "name": "",
          "type": "bool"
        }
      ],
      "stateMutability": "view",
      "type": "function"
    },
    {
      "inputs": [
        {
          "internalType": "address",
          "name": "a",
          "type": "address"
        }
      ],
      "name": "isOwner",
      "outputs": [
        {
          "internalType": "bool",
          "name": "",
          "type": "bool"
        }
      ],
      "stateMutability": "view",
      "type": "function"
    },
    {
      "inputs": [],
      "name": "is_visible",
      "outputs": [
        {
          "internalType": "bool",
          "name": "",
          "type": "bool"
        }
      ],
      "stateMutability": "view",
      "type": "function"
    },
    {
      "inputs": [
        {
          "internalType": "uint256",
          "name": "",
          "type": "uint256"
        }
      ],
      "name": "items",
      "outputs": [
        {
          "internalType": "string",
          "name": "ipfs_hash",
          "type": "string"
        },
        {
          "internalType": "bool",
          "name": "is_visible",
          "type": "bool"
        },
        {
          "internalType": "uint256",
          "name": "price",
          "type": "uint256"
        },
        {
          "internalType": "uint256",
          "name": "stock",
          "type": "uint256"
        }
      ],
      "stateMutability": "view",
      "type": "function"
    },
    {
      "inputs": [
        {
          "internalType": "string",
          "name": "item_ipfs_hash",
          "type": "string"
        },
        {
          "internalType": "bool",
          "name": "item_is_visible",
          "type": "bool"
        },
        {
          "internalType": "uint256",
          "name": "price",
          "type": "uint256"
        },
        {
          "internalType": "uint256",
          "name": "stock",
          "type": "uint256"
        }
      ],
      "name": "addItem",
      "outputs": [],
      "stateMutability": "nonpayable",
      "type": "function"
    },
    {
      "inputs": [
        {
          "internalType": "uint256",
          "name": "item_id",
          "type": "uint256"
        }
      ],
      "name": "getItem",
      "outputs": [
        {
          "internalType": "string",
          "name": "",
          "type": "string"
        }
      ],
      "stateMutability": "view",
      "type": "function"
    },
    {
      "inputs": [
        {
          "internalType": "uint256[]",
          "name": "item_ids",
          "type": "uint256[]"
        }
      ],
      "name": "getItems",
      "outputs": [
        {
          "internalType": "string[]",
          "name": "",
          "type": "string[]"
        }
      ],
      "stateMutability": "view",
      "type": "function"
    },
    {
      "inputs": [
        {
          "internalType": "uint256",
          "name": "cursor",
          "type": "uint256"
        },
        {
          "internalType": "uint8",
          "name": "length",
          "type": "uint8"
        }
      ],
      "name": "getAllItems",
      "outputs": [
        {
          "internalType": "string[]",
          "name": "values",
          "type": "string[]"
        },
        {
          "internalType": "uint256",
          "name": "",
          "type": "uint256"
        }
      ],
      "stateMutability": "view",
      "type": "function"
    },
    {
      "inputs": [
        {
          "internalType": "uint256",
          "name": "item_id",
          "type": "uint256"
        },
        {
          "internalType": "uint256",
          "name": "number_to_buy",
          "type": "uint256"
        }
      ],
      "name": "purchaseItem",
      "outputs": [],
      "stateMutability": "payable",
      "type": "function"
    }
  ],
  "bytecode": "0x60806040523480156200001157600080fd5b5060405162001caf38038062001caf8339818101604052810190620000379190620002c0565b8280600160006101000a81548173ffffffffffffffffffffffffffffffffffffffff021916908373ffffffffffffffffffffffffffffffffffffffff1602179055506001600080600160009054906101000a900473ffffffffffffffffffffffffffffffffffffffff1673ffffffffffffffffffffffffffffffffffffffff1673ffffffffffffffffffffffffffffffffffffffff16815260200190815260200160002060006101000a81548160ff0219169083151502179055505082600160006101000a81548173ffffffffffffffffffffffffffffffffffffffff021916908373ffffffffffffffffffffffffffffffffffffffff16021790555081600290805190602001906200014c92919062000170565b5080600360006101000a81548160ff02191690831515021790555050505062000513565b8280546200017e9062000404565b90600052602060002090601f016020900481019282620001a25760008555620001ee565b82601f10620001bd57805160ff1916838001178555620001ee565b82800160010185558215620001ee579182015b82811115620001ed578251825591602001919060010190620001d0565b5b509050620001fd919062000201565b5090565b5b808211156200021c57600081600090555060010162000202565b5090565b600062000237620002318462000358565b6200032f565b9050828152602081018484840111156200025057600080fd5b6200025d848285620003ce565b509392505050565b6000815190506200027681620004df565b92915050565b6000815190506200028d81620004f9565b92915050565b600082601f830112620002a557600080fd5b8151620002b784826020860162000220565b91505092915050565b600080600060608486031215620002d657600080fd5b6000620002e68682870162000265565b935050602084015167ffffffffffffffff8111156200030457600080fd5b620003128682870162000293565b925050604062000325868287016200027c565b9150509250925092565b60006200033b6200034e565b90506200034982826200043a565b919050565b6000604051905090565b600067ffffffffffffffff8211156200037657620003756200049f565b5b6200038182620004ce565b9050602081019050919050565b60006200039b82620003ae565b9050919050565b60008115159050919050565b600073ffffffffffffffffffffffffffffffffffffffff82169050919050565b60005b83811015620003ee578082015181840152602081019050620003d1565b83811115620003fe576000848401525b50505050565b600060028204905060018216806200041d57607f821691505b6020821081141562000434576200043362000470565b5b50919050565b6200044582620004ce565b810181811067ffffffffffffffff821117156200046757620004666200049f565b5b80604052505050565b7f4e487b7100000000000000000000000000000000000000000000000000000000600052602260045260246000fd5b7f4e487b7100000000000000000000000000000000000000000000000000000000600052604160045260246000fd5b6000601f19601f8301169050919050565b620004ea816200038e565b8114620004f657600080fd5b50565b6200050481620003a2565b81146200051057600080fd5b50565b61178c80620005236000396000f3fe60806040526004361061009c5760003560e01c8063809051db11610064578063809051db146101bf578063bfb231d2146101ea578063cea8d7541461022a578063e067569814610255578063e6eafc9614610271578063ed1f21ec146102ae5761009c565b8063131a4b26146100a157806324d7806c146100df5780632f54bf6e1461011c5780633129e773146101595780637048027514610196575b600080fd5b3480156100ad57600080fd5b506100c860048036038101906100c39190610fc3565b6102d7565b6040516100d69291906111aa565b60405180910390f35b3480156100eb57600080fd5b5061010660048036038101906101019190610e4c565b610542565b60405161011391906111da565b60405180910390f35b34801561012857600080fd5b50610143600480360381019061013e9190610e4c565b610597565b60405161015091906111da565b60405180910390f35b34801561016557600080fd5b50610180600480360381019061017b9190610f35565b6105f1565b60405161018d91906111f5565b60405180910390f35b3480156101a257600080fd5b506101bd60048036038101906101b89190610e4c565b610699565b005b3480156101cb57600080fd5b506101d46106f3565b6040516101e191906111f5565b60405180910390f35b3480156101f657600080fd5b50610211600480360381019061020c9190610f35565b610781565b6040516102219493929190611217565b60405180910390f35b34801561023657600080fd5b5061023f610846565b60405161024c91906111da565b60405180910390f35b61026f600480360381019061026a9190610f87565b610859565b005b34801561027d57600080fd5b5061029860048036038101906102939190610e75565b6109aa565b6040516102a59190611188565b60405180910390f35b3480156102ba57600080fd5b506102d560048036038101906102d09190610eba565b610b75565b005b606060008260ff1667ffffffffffffffff81111561031e577f4e487b7100000000000000000000000000000000000000000000000000000000600052604160045260246000fd5b60405190808252806020026020018201604052801561035157816020015b606081526020019060019003908161033c5790505b50915060005b600473__IdGenerators__________________________6374828ff490916040518263ffffffff1660e01b815260040161039191906112c3565b60206040518083038186803b1580156103a957600080fd5b505af41580156103bd573d6000803e3d6000fd5b505050506040513d601f19601f820116820180604052508101906103e19190610f5e565b851015610533578360ff168160ff161415610402578285925092505061053b565b6005600086815260200190815260200160002060010160009054906101000a900460ff16156105205760056000868152602001908152602001600020600001805461044c906114bf565b80601f0160208091040260200160405190810160405280929190818152602001828054610478906114bf565b80156104c55780601f1061049a576101008083540402835291602001916104c5565b820191906000526020600020905b8154815290600101906020018083116104a857829003601f168201915b5050505050838260ff1681518110610506577f4e487b7100000000000000000000000000000000000000000000000000000000600052603260045260246000fd5b6020026020010181905250808061051c9061156b565b9150505b848061052b90611522565b955050610357565b828592509250505b9250929050565b60008060008373ffffffffffffffffffffffffffffffffffffffff1673ffffffffffffffffffffffffffffffffffffffff16815260200190815260200160002060009054906101000a900460ff169050919050565b6000600160009054906101000a900473ffffffffffffffffffffffffffffffffffffffff1673ffffffffffffffffffffffffffffffffffffffff168273ffffffffffffffffffffffffffffffffffffffff16149050919050565b6060600560008381526020019081526020016000206000018054610614906114bf565b80601f0160208091040260200160405190810160405280929190818152602001828054610640906114bf565b801561068d5780601f106106625761010080835404028352916020019161068d565b820191906000526020600020905b81548152906001019060200180831161067057829003601f168201915b50505050509050919050565b60016000808373ffffffffffffffffffffffffffffffffffffffff1673ffffffffffffffffffffffffffffffffffffffff16815260200190815260200160002060006101000a81548160ff02191690831515021790555050565b60028054610700906114bf565b80601f016020809104026020016040519081016040528092919081815260200182805461072c906114bf565b80156107795780601f1061074e57610100808354040283529160200191610779565b820191906000526020600020905b81548152906001019060200180831161075c57829003601f168201915b505050505081565b60056020528060005260406000206000915090508060000180546107a4906114bf565b80601f01602080910402602001604051908101604052809291908181526020018280546107d0906114bf565b801561081d5780601f106107f25761010080835404028352916020019161081d565b820191906000526020600020905b81548152906001019060200180831161080057829003601f168201915b5050505050908060010160009054906101000a900460ff16908060020154908060030154905084565b600360009054906101000a900460ff1681565b60006005600084815260200190815260200160002060030154116108b2576040517f08c379a00000000000000000000000000000000000000000000000000000000081526004016108a990611263565b60405180910390fd5b60008160056000858152602001908152602001600020600301546108d691906113f4565b11610916576040517f08c379a000000000000000000000000000000000000000000000000000000000815260040161090d90611283565b60405180910390fd5b806005600084815260200190815260200160002060020154610938919061139a565b3414610979576040517f08c379a0000000000000000000000000000000000000000000000000000000008152600401610970906112a3565b60405180910390fd5b8060056000848152602001908152602001600020600301600082825461099f91906113f4565b925050819055505050565b606060008383905067ffffffffffffffff8111156109f1577f4e487b7100000000000000000000000000000000000000000000000000000000600052604160045260246000fd5b604051908082528060200260200182016040528015610a2457816020015b6060815260200190600190039081610a0f5790505b50905060005b84849050811015610b6a5760056000868684818110610a72577f4e487b7100000000000000000000000000000000000000000000000000000000600052603260045260246000fd5b9050602002013581526020019081526020016000206000018054610a95906114bf565b80601f0160208091040260200160405190810160405280929190818152602001828054610ac1906114bf565b8015610b0e5780601f10610ae357610100808354040283529160200191610b0e565b820191906000526020600020905b815481529060010190602001808311610af157829003601f168201915b5050505050828281518110610b4c577f4e487b7100000000000000000000000000000000000000000000000000000000600052603260045260246000fd5b60200260200101819052508080610b6290611522565b915050610a2a565b508091505092915050565b604051806080016040528085815260200184151581526020018381526020018281525060056000600473__IdGenerators__________________________6308a7379590916040518263ffffffff1660e01b8152600401610bd691906112c3565b60206040518083038186803b158015610bee57600080fd5b505af4158015610c02573d6000803e3d6000fd5b505050506040513d601f19601f82011682018060405250810190610c269190610f5e565b81526020019081526020016000206000820151816000019080519060200190610c50929190610c8e565b5060208201518160010160006101000a81548160ff021916908315150217905550604082015181600201556060820151816003015590505050505050565b828054610c9a906114bf565b90600052602060002090601f016020900481019282610cbc5760008555610d03565b82601f10610cd557805160ff1916838001178555610d03565b82800160010185558215610d03579182015b82811115610d02578251825591602001919060010190610ce7565b5b509050610d109190610d14565b5090565b5b80821115610d2d576000816000905550600101610d15565b5090565b6000610d44610d3f84611303565b6112de565b905082815260208101848484011115610d5c57600080fd5b610d6784828561147d565b509392505050565b600081359050610d7e816116fa565b92915050565b60008083601f840112610d9657600080fd5b8235905067ffffffffffffffff811115610daf57600080fd5b602083019150836020820283011115610dc757600080fd5b9250929050565b600081359050610ddd81611711565b92915050565b600082601f830112610df457600080fd5b8135610e04848260208601610d31565b91505092915050565b600081359050610e1c81611728565b92915050565b600081519050610e3181611728565b92915050565b600081359050610e468161173f565b92915050565b600060208284031215610e5e57600080fd5b6000610e6c84828501610d6f565b91505092915050565b60008060208385031215610e8857600080fd5b600083013567ffffffffffffffff811115610ea257600080fd5b610eae85828601610d84565b92509250509250929050565b60008060008060808587031215610ed057600080fd5b600085013567ffffffffffffffff811115610eea57600080fd5b610ef687828801610de3565b9450506020610f0787828801610dce565b9350506040610f1887828801610e0d565b9250506060610f2987828801610e0d565b91505092959194509250565b600060208284031215610f4757600080fd5b6000610f5584828501610e0d565b91505092915050565b600060208284031215610f7057600080fd5b6000610f7e84828501610e22565b91505092915050565b60008060408385031215610f9a57600080fd5b6000610fa885828601610e0d565b9250506020610fb985828601610e0d565b9150509250929050565b60008060408385031215610fd657600080fd5b6000610fe485828601610e0d565b9250506020610ff585828601610e37565b9150509250929050565b600061100b8383611097565b905092915050565b600061101e82611344565b6110288185611367565b93508360208202850161103a85611334565b8060005b8581101561107657848403895281516110578582610fff565b94506110628361135a565b925060208a0199505060018101905061103e565b50829750879550505050505092915050565b6110918161143a565b82525050565b60006110a28261134f565b6110ac8185611378565b93506110bc81856020860161148c565b6110c581611622565b840191505092915050565b60006110db8261134f565b6110e58185611389565b93506110f581856020860161148c565b6110fe81611622565b840191505092915050565b6000611116601f83611389565b915061112182611633565b602082019050919050565b6000611139602483611389565b91506111448261165c565b604082019050919050565b600061115c602583611389565b9150611167826116ab565b604082019050919050565b8082525050565b61118281611466565b82525050565b600060208201905081810360008301526111a28184611013565b905092915050565b600060408201905081810360008301526111c48185611013565b90506111d36020830184611179565b9392505050565b60006020820190506111ef6000830184611088565b92915050565b6000602082019050818103600083015261120f81846110d0565b905092915050565b6000608082019050818103600083015261123181876110d0565b90506112406020830186611088565b61124d6040830185611179565b61125a6060830184611179565b95945050505050565b6000602082019050818103600083015261127c81611109565b9050919050565b6000602082019050818103600083015261129c8161112c565b9050919050565b600060208201905081810360008301526112bc8161114f565b9050919050565b60006020820190506112d86000830184611172565b92915050565b60006112e86112f9565b90506112f482826114f1565b919050565b6000604051905090565b600067ffffffffffffffff82111561131e5761131d6115f3565b5b61132782611622565b9050602081019050919050565b6000819050602082019050919050565b600081519050919050565b600081519050919050565b6000602082019050919050565b600082825260208201905092915050565b600082825260208201905092915050565b600082825260208201905092915050565b60006113a582611466565b91506113b083611466565b9250817fffffffffffffffffffffffffffffffffffffffffffffffffffffffffffffffff04831182151516156113e9576113e8611595565b5b828202905092915050565b60006113ff82611466565b915061140a83611466565b92508282101561141d5761141c611595565b5b828203905092915050565b600061143382611446565b9050919050565b60008115159050919050565b600073ffffffffffffffffffffffffffffffffffffffff82169050919050565b6000819050919050565b600060ff82169050919050565b82818337600083830152505050565b60005b838110156114aa57808201518184015260208101905061148f565b838111156114b9576000848401525b50505050565b600060028204905060018216806114d757607f821691505b602082108114156114eb576114ea6115c4565b5b50919050565b6114fa82611622565b810181811067ffffffffffffffff82111715611519576115186115f3565b5b80604052505050565b600061152d82611466565b91507fffffffffffffffffffffffffffffffffffffffffffffffffffffffffffffffff8214156115605761155f611595565b5b600182019050919050565b600061157682611470565b915060ff82141561158a57611589611595565b5b600182019050919050565b7f4e487b7100000000000000000000000000000000000000000000000000000000600052601160045260246000fd5b7f4e487b7100000000000000000000000000000000000000000000000000000000600052602260045260246000fd5b7f4e487b7100000000000000000000000000000000000000000000000000000000600052604160045260246000fd5b6000601f19601f8301169050919050565b7f54686973206974656d206973206e6f206c6f6e67657220696e2073746f636b00600082015250565b7f54686973206974656d20646f6573206e6f74206861766520656e6f756768207360008201527f746f636b00000000000000000000000000000000000000000000000000000000602082015250565b7f496e636f72726563742076616c75652073656e742077697468207472616e736160008201527f6374696f6e000000000000000000000000000000000000000000000000000000602082015250565b61170381611428565b811461170e57600080fd5b50565b61171a8161143a565b811461172557600080fd5b50565b61173181611466565b811461173c57600080fd5b50565b61174881611470565b811461175357600080fd5b5056fea26469706673582212207db9ca08a948092e00d0bf58fba7da13560fd14d163febe49d7cfdda579be91e64736f6c63430008040033",
  "immutableReferences": {},
  "source": "// SPDX-License-Identifier: MIT\r\npragma solidity >=0.4.22 <0.9.0;\r\n\r\nimport \"./Utils.sol\";\r\nimport \"./Access.sol\";\r\n\r\n\r\ncontract Store is Access {\r\n    using IdGenerators for IdGenerators.IdGenerator;\r\n\r\n    struct Item {\r\n        string ipfs_hash;\r\n        bool is_visible;\r\n        uint price;\r\n        uint stock;\r\n    }\r\n\r\n    string public ipfs_hash;\r\n    bool public is_visible;\r\n\r\n    IdGenerators.IdGenerator item_id_generator;\r\n    mapping(uint => Item) public items; // item_id => ItemInfo\r\n\r\n    constructor(address _owner, string memory _ipfs_hash, bool _is_visible) \r\n    Access(_owner) {\r\n        owner = _owner;\r\n        ipfs_hash = _ipfs_hash;\r\n        is_visible = _is_visible;\r\n    }\r\n\r\n    function addItem(string memory item_ipfs_hash, bool item_is_visible, uint price, uint stock) external {\r\n        items[item_id_generator.next()] = Item({\r\n            ipfs_hash: item_ipfs_hash,\r\n            is_visible: item_is_visible,\r\n            price: price,\r\n            stock: stock\r\n        });\r\n    }\r\n\r\n    function getItem(uint item_id) external view returns(string memory) {\r\n        return items[item_id].ipfs_hash;\r\n    }\r\n\r\n    function getItems(uint256[] calldata item_ids)\r\n    external view returns (string[] memory) {\r\n        string[] memory values = new string[](item_ids.length);\r\n        for (uint256 i = 0; i < item_ids.length; i++) {\r\n            values[i] = items[item_ids[i]].ipfs_hash;\r\n        }\r\n        return values;\r\n    }\r\n\r\n    function getAllItems(uint256 cursor, uint8 length) \r\n    external view returns (string[] memory values, uint256) {\r\n        values = new string[](length);\r\n        uint8 c = 0;\r\n        for (cursor; cursor < item_id_generator.current(); cursor++) {\r\n            if (c == length) {\r\n                return (values, cursor);\r\n            }\r\n            if (items[cursor].is_visible) {\r\n                values[c] = items[cursor].ipfs_hash;\r\n                c++;\r\n            }\r\n        }\r\n        return (values, cursor);\r\n    }\r\n\r\n    function purchaseItem(uint item_id, uint number_to_buy) \r\n    external payable{\r\n        require(items[item_id].stock > 0, \"This item is no longer in stock\");\r\n        require((items[item_id].stock - number_to_buy) > 0, \"This item does not have enough stock\");\r\n        require(msg.value == (items[item_id].price * number_to_buy), \"Incorrect value sent with transaction\");\r\n\r\n        // reduce the stock by the number to buy\r\n        items[item_id].stock -= number_to_buy;\r\n    }\r\n}",
  "sourcePath": "E:/distributed_market/contracts/Store.sol",
  "compiler": {
    "name": "solc",
    "version": "0.8.4+commit.c7e474f2.Emscripten.clang"
  },
  "schemaVersion": "3.4.0",
  "updatedAt": "2021-06-13T06:28:06.673Z",
  "devdoc": {
    "kind": "dev",
    "methods": {},
    "version": 1
  },
  "userdoc": {
    "kind": "user",
    "methods": {},
    "version": 1
  }
}